{
  "address": "0xA767DAd3Bc47C59e15141e6F29609fe22f4b63aA",
  "abi": [
    {
      "constant": true,
      "inputs": [],
      "name": "name",
      "outputs": [
        {
          "name": "",
          "type": "string"
        }
      ],
      "payable": false,
      "stateMutability": "view",
      "type": "function"
    },
    {
      "constant": true,
      "inputs": [],
      "name": "hasInitialized",
      "outputs": [
        {
          "name": "",
          "type": "bool"
        }
      ],
      "payable": false,
      "stateMutability": "view",
      "type": "function"
    },
    {
      "constant": false,
      "inputs": [
        {
          "name": "",
          "type": "address"
        },
        {
          "name": "",
          "type": "uint256"
        }
      ],
      "name": "approve",
      "outputs": [
        {
          "name": "",
          "type": "bool"
        }
      ],
      "payable": false,
      "stateMutability": "nonpayable",
      "type": "function"
    },
    {
      "constant": false,
      "inputs": [
        {
          "name": "_sourceAddr",
          "type": "address"
        },
        {
          "name": "_sourceType",
          "type": "uint8"
        },
        {
          "name": "_weight",
          "type": "uint256"
        }
      ],
      "name": "addPowerSource",
      "outputs": [],
      "payable": false,
      "stateMutability": "nonpayable",
      "type": "function"
    },
    {
      "constant": false,
      "inputs": [
        {
          "name": "_name",
          "type": "string"
        },
        {
          "name": "_symbol",
          "type": "string"
        },
        {
          "name": "_decimals",
          "type": "uint8"
        }
      ],
      "name": "initialize",
      "outputs": [],
      "payable": false,
      "stateMutability": "nonpayable",
      "type": "function"
    },
    {
      "constant": true,
      "inputs": [],
      "name": "totalSupply",
      "outputs": [
        {
          "name": "",
          "type": "uint256"
        }
      ],
      "payable": false,
      "stateMutability": "view",
      "type": "function"
    },
    {
      "constant": false,
      "inputs": [
        {
          "name": "",
          "type": "address"
        },
        {
          "name": "",
          "type": "address"
        },
        {
          "name": "",
          "type": "uint256"
        }
      ],
      "name": "transferFrom",
      "outputs": [
        {
          "name": "",
          "type": "bool"
        }
      ],
      "payable": false,
      "stateMutability": "nonpayable",
      "type": "function"
    },
    {
      "constant": true,
      "inputs": [
        {
          "name": "_sourceAddr",
          "type": "address"
        }
      ],
      "name": "getPowerSourceDetails",
      "outputs": [
        {
          "name": "sourceType",
          "type": "uint8"
        },
        {
          "name": "enabled",
          "type": "bool"
        },
        {
          "name": "weight",
          "type": "uint256"
        }
      ],
      "payable": false,
      "stateMutability": "view",
      "type": "function"
    },
    {
      "constant": true,
      "inputs": [
        {
          "name": "_script",
          "type": "bytes"
        }
      ],
      "name": "getEVMScriptExecutor",
      "outputs": [
        {
          "name": "",
          "type": "address"
        }
      ],
      "payable": false,
      "stateMutability": "view",
      "type": "function"
    },
    {
      "constant": true,
      "inputs": [],
      "name": "decimals",
      "outputs": [
        {
          "name": "",
          "type": "uint8"
        }
      ],
      "payable": false,
      "stateMutability": "view",
      "type": "function"
    },
    {
      "constant": true,
      "inputs": [],
      "name": "getRecoveryVault",
      "outputs": [
        {
          "name": "",
          "type": "address"
        }
      ],
      "payable": false,
      "stateMutability": "view",
      "type": "function"
    },
    {
      "constant": false,
      "inputs": [
        {
          "name": "_sourceAddr",
          "type": "address"
        },
        {
          "name": "_weight",
          "type": "uint256"
        }
      ],
      "name": "changeSourceWeight",
      "outputs": [],
      "payable": false,
      "stateMutability": "nonpayable",
      "type": "function"
    },
    {
      "constant": true,
      "inputs": [],
      "name": "getPowerSourcesLength",
      "outputs": [
        {
          "name": "",
          "type": "uint256"
        }
      ],
      "payable": false,
      "stateMutability": "view",
      "type": "function"
    },
    {
      "constant": true,
      "inputs": [],
      "name": "MANAGE_POWER_SOURCE_ROLE",
      "outputs": [
        {
          "name": "",
          "type": "bytes32"
        }
      ],
      "payable": false,
      "stateMutability": "view",
      "type": "function"
    },
    {
      "constant": true,
      "inputs": [],
      "name": "MANAGE_WEIGHTS_ROLE",
      "outputs": [
        {
          "name": "",
          "type": "bytes32"
        }
      ],
      "payable": false,
      "stateMutability": "view",
      "type": "function"
    },
    {
      "constant": true,
      "inputs": [
        {
          "name": "_owner",
          "type": "address"
        },
        {
          "name": "_blockNumber",
          "type": "uint256"
        }
      ],
      "name": "balanceOfAt",
      "outputs": [
        {
          "name": "",
          "type": "uint256"
        }
      ],
      "payable": false,
      "stateMutability": "view",
      "type": "function"
    },
    {
      "constant": true,
      "inputs": [
        {
          "name": "_owner",
          "type": "address"
        }
      ],
      "name": "balanceOf",
      "outputs": [
        {
          "name": "",
          "type": "uint256"
        }
      ],
      "payable": false,
      "stateMutability": "view",
      "type": "function"
    },
    {
      "constant": true,
      "inputs": [],
      "name": "ADD_POWER_SOURCE_ROLE",
      "outputs": [
        {
          "name": "",
          "type": "bytes32"
        }
      ],
      "payable": false,
      "stateMutability": "view",
      "type": "function"
    },
    {
      "constant": true,
      "inputs": [
        {
          "name": "token",
          "type": "address"
        }
      ],
      "name": "allowRecoverability",
      "outputs": [
        {
          "name": "",
          "type": "bool"
        }
      ],
      "payable": false,
      "stateMutability": "view",
      "type": "function"
    },
    {
      "constant": true,
      "inputs": [],
      "name": "appId",
      "outputs": [
        {
          "name": "",
          "type": "bytes32"
        }
      ],
      "payable": false,
      "stateMutability": "view",
      "type": "function"
    },
    {
      "constant": true,
      "inputs": [],
      "name": "getInitializationBlock",
      "outputs": [
        {
          "name": "",
          "type": "uint256"
        }
      ],
      "payable": false,
      "stateMutability": "view",
      "type": "function"
    },
    {
      "constant": true,
      "inputs": [],
      "name": "symbol",
      "outputs": [
        {
          "name": "",
          "type": "string"
        }
      ],
      "payable": false,
      "stateMutability": "view",
      "type": "function"
    },
    {
      "constant": true,
      "inputs": [
        {
          "name": "_blockNumber",
          "type": "uint256"
        }
      ],
      "name": "totalSupplyAt",
      "outputs": [
        {
          "name": "",
          "type": "uint256"
        }
      ],
      "payable": false,
      "stateMutability": "view",
      "type": "function"
    },
    {
      "constant": false,
      "inputs": [
        {
          "name": "_token",
          "type": "address"
        }
      ],
      "name": "transferToVault",
      "outputs": [],
      "payable": false,
      "stateMutability": "nonpayable",
      "type": "function"
    },
    {
      "constant": true,
      "inputs": [
        {
          "name": "",
          "type": "uint256"
        }
      ],
      "name": "powerSources",
      "outputs": [
        {
          "name": "",
          "type": "address"
        }
      ],
      "payable": false,
      "stateMutability": "view",
      "type": "function"
    },
    {
      "constant": true,
      "inputs": [
        {
          "name": "_sender",
          "type": "address"
        },
        {
          "name": "_role",
          "type": "bytes32"
        },
        {
          "name": "_params",
          "type": "uint256[]"
        }
      ],
      "name": "canPerform",
      "outputs": [
        {
          "name": "",
          "type": "bool"
        }
      ],
      "payable": false,
      "stateMutability": "view",
      "type": "function"
    },
    {
      "constant": true,
      "inputs": [],
      "name": "getEVMScriptRegistry",
      "outputs": [
        {
          "name": "",
          "type": "address"
        }
      ],
      "payable": false,
      "stateMutability": "view",
      "type": "function"
    },
    {
      "constant": false,
      "inputs": [
        {
          "name": "",
          "type": "address"
        },
        {
          "name": "",
          "type": "uint256"
        }
      ],
      "name": "transfer",
      "outputs": [
        {
          "name": "",
          "type": "bool"
        }
      ],
      "payable": false,
      "stateMutability": "nonpayable",
      "type": "function"
    },
    {
      "constant": true,
      "inputs": [
        {
          "name": "_sender",
          "type": "address"
        },
        {
          "name": "",
          "type": "bytes"
        }
      ],
      "name": "canForward",
      "outputs": [
        {
          "name": "",
          "type": "bool"
        }
      ],
      "payable": false,
      "stateMutability": "view",
      "type": "function"
    },
    {
      "constant": true,
      "inputs": [],
      "name": "kernel",
      "outputs": [
        {
          "name": "",
          "type": "address"
        }
      ],
      "payable": false,
      "stateMutability": "view",
      "type": "function"
    },
    {
      "constant": false,
      "inputs": [
        {
          "name": "_evmScript",
          "type": "bytes"
        }
      ],
      "name": "forward",
      "outputs": [],
      "payable": false,
      "stateMutability": "nonpayable",
      "type": "function"
    },
    {
      "constant": true,
      "inputs": [
        {
          "name": "",
          "type": "address"
        },
        {
          "name": "",
          "type": "address"
        }
      ],
      "name": "allowance",
      "outputs": [
        {
          "name": "",
          "type": "uint256"
        }
      ],
      "payable": false,
      "stateMutability": "view",
      "type": "function"
    },
    {
      "constant": true,
      "inputs": [],
      "name": "isPetrified",
      "outputs": [
        {
          "name": "",
          "type": "bool"
        }
      ],
      "payable": false,
      "stateMutability": "view",
      "type": "function"
    },
    {
      "constant": false,
      "inputs": [
        {
          "name": "_sourceAddr",
          "type": "address"
        }
      ],
      "name": "disableSource",
      "outputs": [],
      "payable": false,
      "stateMutability": "nonpayable",
      "type": "function"
    },
    {
      "constant": false,
      "inputs": [
        {
          "name": "_sourceAddr",
          "type": "address"
        }
      ],
      "name": "enableSource",
      "outputs": [],
      "payable": false,
      "stateMutability": "nonpayable",
      "type": "function"
    },
    {
      "constant": true,
      "inputs": [],
      "name": "isForwarder",
      "outputs": [
        {
          "name": "",
          "type": "bool"
        }
      ],
      "payable": false,
      "stateMutability": "pure",
      "type": "function"
    },
    {
      "anonymous": false,
      "inputs": [
        {
          "indexed": true,
          "name": "sourceAddress",
          "type": "address"
        },
        {
          "indexed": false,
          "name": "sourceType",
          "type": "uint8"
        },
        {
          "indexed": false,
          "name": "weight",
          "type": "uint256"
        }
      ],
      "name": "AddPowerSource",
      "type": "event"
    },
    {
      "anonymous": false,
      "inputs": [
        {
          "indexed": true,
          "name": "sourceAddress",
          "type": "address"
        },
        {
          "indexed": false,
          "name": "newWeight",
          "type": "uint256"
        }
      ],
      "name": "ChangePowerSourceWeight",
      "type": "event"
    },
    {
      "anonymous": false,
      "inputs": [
        {
          "indexed": true,
          "name": "sourceAddress",
          "type": "address"
        }
      ],
      "name": "DisablePowerSource",
      "type": "event"
    },
    {
      "anonymous": false,
      "inputs": [
        {
          "indexed": true,
          "name": "sourceAddress",
          "type": "address"
        }
      ],
      "name": "EnablePowerSource",
      "type": "event"
    },
    {
      "anonymous": false,
      "inputs": [
        {
          "indexed": true,
          "name": "executor",
          "type": "address"
        },
        {
          "indexed": false,
          "name": "script",
          "type": "bytes"
        },
        {
          "indexed": false,
          "name": "input",
          "type": "bytes"
        },
        {
          "indexed": false,
          "name": "returnData",
          "type": "bytes"
        }
      ],
      "name": "ScriptResult",
      "type": "event"
    },
    {
      "anonymous": false,
      "inputs": [
        {
          "indexed": true,
          "name": "vault",
          "type": "address"
        },
        {
          "indexed": true,
          "name": "token",
          "type": "address"
        },
        {
          "indexed": false,
          "name": "amount",
          "type": "uint256"
        }
      ],
      "name": "RecoverToVault",
      "type": "event"
    },
    {
      "anonymous": false,
      "inputs": [
        {
          "indexed": true,
          "name": "from",
          "type": "address"
        },
        {
          "indexed": true,
          "name": "to",
          "type": "address"
        },
        {
          "indexed": false,
          "name": "value",
          "type": "uint256"
        }
      ],
      "name": "Transfer",
      "type": "event"
    },
    {
      "anonymous": false,
      "inputs": [
        {
          "indexed": true,
          "name": "owner",
          "type": "address"
        },
        {
          "indexed": true,
          "name": "spender",
          "type": "address"
        },
        {
          "indexed": false,
          "name": "value",
          "type": "uint256"
        }
      ],
      "name": "Approval",
      "type": "event"
    }
  ],
  "transactionHash": "0x338c86598c09899e67f1c7a13887f23da7ab7181a567bfb38fb03c4392662547",
  "args": [],
  "solcInputHash": "97af1cbe5434f717ac578ee7c204c595",
  "bytecode": "0x6080604052620000176401000000006200001d810204565b6200023b565b6200003064010000000062000125810204565b60408051808201909152601881527f494e49545f414c52454144595f494e495449414c495a45440000000000000000602082015290156200010c576040517f08c379a00000000000000000000000000000000000000000000000000000000081526004018080602001828103825283818151815260200191508051906020019080838360005b83811015620000d0578181015183820152602001620000b6565b50505050905090810190601f168015620000fe5780820380516001836020036101000a031916815260200191505b509250505060405180910390fd5b506200012360001964010000000062000154810204565b565b60006200014f60008051602062004316833981519152640100000000620030846200023382021704565b905090565b6200016764010000000062000125810204565b60408051808201909152601881527f494e49545f414c52454144595f494e495449414c495a454400000000000000006020820152901562000206576040517f08c379a000000000000000000000000000000000000000000000000000000000815260040180806020018281038252838181518152602001915080519060200190808383600083811015620000d0578181015183820152602001620000b6565b5062000230600080516020620043168339815191528264010000000062003c356200023782021704565b50565b5490565b9055565b6140cb806200024b6000396000f3006080604052600436106101c15763ffffffff7c010000000000000000000000000000000000000000000000000000000060003504166306fdde0381146101c65780630803fac014610250578063095ea7b3146102795780630f3d5d97146102aa5780631624f6c6146102e357806318160ddd1461031557806323b872dd1461033c57806325861b20146103735780632914b9bd146103d4578063313ce5671461045657806332f0a3b51461048157806335c37a131461049657806340d5dc4d146104c757806343c7b568146104dc5780634b01bab3146104f15780634ee2cd7e1461050657806370a08231146105375780637d5b23a2146105655780637e7db6e11461057a57806380afdea8146105a85780638b3dd749146105bd57806395d89b41146105d2578063981b24d0146105e75780639d4941d8146105ff5780639f42ad861461062d578063a1658fad14610645578063a479e508146106b9578063a9059cbb14610279578063c0774df3146106ce578063d4aae0c414610742578063d948d46814610757578063dd62ed3e146107b0578063de4796ed146107e4578063e27dca5c146107f9578063e42e56b214610827578063fd64eccb14610855575b600080fd5b3480156101d257600080fd5b506101db61086a565b6040805160208082528351818301528351919283929083019185019080838360005b838110156102155781810151838201526020016101fd565b50505050905090810190601f1680156102425780820380516001836020036101000a031916815260200191505b509250505060405180910390f35b34801561025c57600080fd5b50610265610916565b604080519115158252519081900360200190f35b34801561028557600080fd5b5061026573ffffffffffffffffffffffffffffffffffffffff60043516602435610940565b3480156102b657600080fd5b506102e173ffffffffffffffffffffffffffffffffffffffff6004351660ff60243516604435610a0d565b005b3480156102ef57600080fd5b506102e1602460048035828101929082013591813591820191013560ff60443516610f9d565b34801561032157600080fd5b5061032a61109c565b60408051918252519081900360200190f35b34801561034857600080fd5b5061026573ffffffffffffffffffffffffffffffffffffffff60043581169060243516604435610940565b34801561037f57600080fd5b506103a173ffffffffffffffffffffffffffffffffffffffff600435166110b4565b604051808460028111156103b157fe5b60ff16815292151560208401525060408083019190915251908190036060019150f35b3480156103e057600080fd5b506040805160206004803580820135601f810184900484028501840190955284845261042d9436949293602493928401919081908401838280828437509497506111b69650505050505050565b6040805173ffffffffffffffffffffffffffffffffffffffff9092168252519081900360200190f35b34801561046257600080fd5b5061046b6112c2565b6040805160ff9092168252519081900360200190f35b34801561048d57600080fd5b5061042d6112cb565b3480156104a257600080fd5b506102e173ffffffffffffffffffffffffffffffffffffffff60043516602435611369565b3480156104d357600080fd5b5061032a6116ff565b3480156104e857600080fd5b5061032a6117ae565b3480156104fd57600080fd5b5061032a6117d2565b34801561051257600080fd5b5061032a73ffffffffffffffffffffffffffffffffffffffff600435166024356117f6565b34801561054357600080fd5b5061032a73ffffffffffffffffffffffffffffffffffffffff60043516611846565b34801561057157600080fd5b5061032a611859565b34801561058657600080fd5b5061026573ffffffffffffffffffffffffffffffffffffffff6004351661187d565b3480156105b457600080fd5b5061032a611883565b3480156105c957600080fd5b5061032a6118ae565b3480156105de57600080fd5b506101db6118d9565b3480156105f357600080fd5b5061032a600435611951565b34801561060b57600080fd5b506102e173ffffffffffffffffffffffffffffffffffffffff6004351661197e565b34801561063957600080fd5b5061042d600435611ca0565b34801561065157600080fd5b50604080516020600460443581810135838102808601850190965280855261026595833573ffffffffffffffffffffffffffffffffffffffff16956024803596369695606495939492019291829185019084908082843750949750611cd59650505050505050565b3480156106c557600080fd5b5061042d611e65565b3480156106da57600080fd5b5060408051602060046024803582810135601f810185900485028601850190965285855261026595833573ffffffffffffffffffffffffffffffffffffffff16953695604494919390910191908190840183828082843750949750611f279650505050505050565b34801561074e57600080fd5b5061042d611f4b565b34801561076357600080fd5b506040805160206004803580820135601f81018490048402850184019095528484526102e1943694929360249392840191908190840183828082843750949750611f769650505050505050565b3480156107bc57600080fd5b5061032a73ffffffffffffffffffffffffffffffffffffffff6004358116906024351661204a565b3480156107f057600080fd5b50610265612052565b34801561080557600080fd5b506102e173ffffffffffffffffffffffffffffffffffffffff60043516612083565b34801561083357600080fd5b506102e173ffffffffffffffffffffffffffffffffffffffff60043516612334565b34801561086157600080fd5b506102656125e4565b6000805460408051602060026001851615610100027fffffffffffffffffffffffffffffffffffffffffffffffffffffffffffffffff0190941693909304601f8101849004840282018401909252818152929183018282801561090e5780601f106108e35761010080835404028352916020019161090e565b820191906000526020600020905b8154815290600101906020018083116108f157829003601f168201915b505050505081565b6000806109216118ae565b905080158015906109395750806109366125e9565b10155b91505b5090565b604080518082018252600f81527f45524332305f564945575f4f4e4c590000000000000000000000000000000000602080830191825292517f08c379a00000000000000000000000000000000000000000000000000000000081526004810193845282516024820152825160009492839260440191808383895b838110156109d25781810151838201526020016109ba565b50505050905090810190601f1680156109ff5780820380516001836020036101000a031916815260200191505b509250505060405180910390fd5b60007f10f7c4af0b190fdd7eb73fa36b0e280d48dc6b8d355f89769b4f1a50a61d1929610a3a85846125ed565b610a45338383611cd5565b60408051808201909152600f81527f4150505f415554485f4641494c454400000000000000000000000000000000006020820152901515610ae2576040517f08c379a0000000000000000000000000000000000000000000000000000000008152600401808060200182810382528381815181526020019150805190602001908083836000838110156109d25781810151838201526020016109ba565b506001856002811115610af157fe5b1480610b0857506002856002811115610b0657fe5b145b60408051808201909152601c81527f56415f504f5745525f534f555243455f545950455f494e56414c4944000000006020820152901515610ba5576040517f08c379a0000000000000000000000000000000000000000000000000000000008152600401808060200182810382528381815181526020019150805190602001908083836000838110156109d25781810151838201526020016109ba565b5060408051808201909152600e81527f56415f5a45524f5f574549474854000000000000000000000000000000000000602082015260008511610c44576040517f08c379a0000000000000000000000000000000000000000000000000000000008152600401808060200182810382528381815181526020019150805190602001908083836000838110156109d25781810151838201526020016109ba565b50610c4f868661260f565b60408051808201909152601781527f56415f504f5745525f534f555243455f494e56414c49440000000000000000006020820152901515610cec576040517f08c379a0000000000000000000000000000000000000000000000000000000008152600401808060200182810382528381815181526020019150805190602001908083836000838110156109d25781810151838201526020016109ba565b50610cf6866128ce565b60408051808201909152601d81527f56415f504f5745525f534f555243455f414c52454144595f414444454400000060208201529015610d92576040517f08c379a0000000000000000000000000000000000000000000000000000000008152600401808060200182810382528381815181526020019150805190602001908083836000838110156109d25781810151838201526020016109ba565b5060045460408051808201909152601981527f56415f544f4f5f4d414e595f504f5745525f534f555243455300000000000000602082015290601411610e34576040517f08c379a0000000000000000000000000000000000000000000000000000000008152600401808060200182810382528381815181526020019150805190602001908083836000838110156109d25781810151838201526020016109ba565b506004805460018082019092557f8a35acfbc15ff81a39ae7d344fd709f28e8600b4aa8c65c6b64bfe7fe36bd19b0180547fffffffffffffffffffffffff00000000000000000000000000000000000000001673ffffffffffffffffffffffffffffffffffffffff891690811790915560009081526003602052604090208054909450869185917fffffffffffffffffffffffffffffffffffffffffffffffffffffffffffffff001690836002811115610eea57fe5b0217905550610f0c610efa61290d565b6001858101919063ffffffff61291f16565b610f31610f1761290d565b610f2086612b9c565b60028601919063ffffffff61291f16565b8573ffffffffffffffffffffffffffffffffffffffff167fbe6945fc933e18e86e095cac3b02abe3378f544f38c8aba2606eaebd1cacac2e868660405180836002811115610f7b57fe5b60ff1681526020018281526020019250505060405180910390a2505050505050565b610fa56118ae565b60408051808201909152601881527f494e49545f414c52454144595f494e495449414c495a4544000000000000000060208201529015611041576040517f08c379a0000000000000000000000000000000000000000000000000000000008152600401808060200182810382528381815181526020019150805190602001908083836000838110156109d25781810151838201526020016109ba565b5061104a612c5c565b61105660008686613ff3565b5061106360018484613ff3565b50600280547fffffffffffffffffffffffffffffffffffffffffffffffffffffffffffffff001660ff9290921691909117905550505050565b60006110ae6110a96125e9565b611951565b90505b90565b600080600080846110c4816128ce565b60408051808201909152601281527f56415f4e4f5f504f5745525f534f5552434500000000000000000000000000006020820152901515611161576040517f08c379a0000000000000000000000000000000000000000000000000000000008152600401808060200182810382528381815181526020019150805190602001908083836000838110156109d25781810151838201526020016109ba565b5073ffffffffffffffffffffffffffffffffffffffff86166000908152600360205260409020805460ff1695509150600161119d818401612d3b565b1493506111ac82600201612d3b565b9496939550505050565b60006111c0611e65565b73ffffffffffffffffffffffffffffffffffffffff166304bf2a7f836040518263ffffffff167c01000000000000000000000000000000000000000000000000000000000281526004018080602001828103825283818151815260200191508051906020019080838360005b8381101561124457818101518382015260200161122c565b50505050905090810190601f1680156112715780820380516001836020036101000a031916815260200191505b5092505050602060405180830381600087803b15801561129057600080fd5b505af11580156112a4573d6000803e3d6000fd5b505050506040513d60208110156112ba57600080fd5b505192915050565b60025460ff1681565b60006112d5611f4b565b73ffffffffffffffffffffffffffffffffffffffff166332f0a3b56040518163ffffffff167c0100000000000000000000000000000000000000000000000000000000028152600401602060405180830381600087803b15801561133857600080fd5b505af115801561134c573d6000803e3d6000fd5b505050506040513d602081101561136257600080fd5b5051905090565b73ffffffffffffffffffffffffffffffffffffffff821660009081526003602052604081207fa36fcade8375289791865312a33263fdc82d07e097c13524c9d6436c0de396ff906113c79084906113c290600201612d3b565b612dbc565b6113d2338383611cd5565b60408051808201909152600f81527f4150505f415554485f4641494c45440000000000000000000000000000000000602082015290151561146f576040517f08c379a0000000000000000000000000000000000000000000000000000000008152600401808060200182810382528381815181526020019150805190602001908083836000838110156109d25781810151838201526020016109ba565b508461147a816128ce565b60408051808201909152601281527f56415f4e4f5f504f5745525f534f5552434500000000000000000000000000006020820152901515611517576040517f08c379a0000000000000000000000000000000000000000000000000000000008152600401808060200182810382528381815181526020019150805190602001908083836000838110156109d25781810151838201526020016109ba565b5060408051808201909152600e81527f56415f5a45524f5f5745494748540000000000000000000000000000000000006020820152600086116115b6576040517f08c379a0000000000000000000000000000000000000000000000000000000008152600401808060200182810382528381815181526020019150805190602001908083836000838110156109d25781810151838201526020016109ba565b5073ffffffffffffffffffffffffffffffffffffffff861660009081526003602052604090206002019350846115eb85612d3b565b60408051808201909152600e81527f56415f53414d455f5745494748540000000000000000000000000000000000006020820152911415611688576040517f08c379a0000000000000000000000000000000000000000000000000000000008152600401808060200182810382528381815181526020019150805190602001908083836000838110156109d25781810151838201526020016109ba565b506116ab61169461290d565b61169d87612b9c565b86919063ffffffff61291f16565b60408051868152905173ffffffffffffffffffffffffffffffffffffffff8816917f40949e8276e798a2b3612cd8c13025d5a36daa58ae141c449b0c290b365a8f1a919081900360200190a2505050505050565b6000611709610916565b60408051808201909152601481527f494e49545f4e4f545f494e495449414c495a454400000000000000000000000060208201529015156117a6576040517f08c379a0000000000000000000000000000000000000000000000000000000008152600401808060200182810382528381815181526020019150805190602001908083836000838110156109d25781810151838201526020016109ba565b505060045490565b7f79ac9d2706bbe6bcdb60a65ba8145a498f6d506aaa455baa7675dff5779cb99f81565b7fa36fcade8375289791865312a33263fdc82d07e097c13524c9d6436c0de396ff81565b6040805173ffffffffffffffffffffffffffffffffffffffff84166020820152808201839052815180820383018152606090910190915260009061183d9083908390612e17565b90505b92915050565b6000611840826118546125e9565b6117f6565b7f10f7c4af0b190fdd7eb73fa36b0e280d48dc6b8d355f89769b4f1a50a61d192981565b50600190565b60006110ae7fd625496217aa6a3453eecb9c3489dc5a53e6c67b444329ea2b2cbc9ff547639b613084565b60006110ae7febb05b386a8d34882b8711d156f463690983dc47815980fb82aeeff1aa43579e613084565b60018054604080516020600284861615610100027fffffffffffffffffffffffffffffffffffffffffffffffffffffffffffffffff0190941693909304601f8101849004840282018401909252818152929183018282801561090e5780601f106108e35761010080835404028352916020019161090e565b60006118408260018460405160200180828152602001915050604051602081830303815290604052612e17565b600080600061198c8461187d565b60408051808201909152601281527f5245434f5645525f444953414c4c4f57454400000000000000000000000000006020820152901515611a29576040517f08c379a0000000000000000000000000000000000000000000000000000000008152600401808060200182810382528381815181526020019150805190602001908083836000838110156109d25781810151838201526020016109ba565b50611a326112cb565b9250611a3d8361308c565b60408051808201909152601a81527f5245434f5645525f5641554c545f4e4f545f434f4e54524143540000000000006020820152901515611ada576040517f08c379a0000000000000000000000000000000000000000000000000000000008152600401808060200182810382528381815181526020019150805190602001908083836000838110156109d25781810151838201526020016109ba565b5073ffffffffffffffffffffffffffffffffffffffff84161515611b45576040513031925073ffffffffffffffffffffffffffffffffffffffff84169083156108fc029084906000818181858888f19350505050158015611b3f573d6000803e3d6000fd5b50611c35565b5082611b6d73ffffffffffffffffffffffffffffffffffffffff82163063ffffffff6130bf16565b9150611b9673ffffffffffffffffffffffffffffffffffffffff8216848463ffffffff6131f816565b60408051808201909152601d81527f5245434f5645525f544f4b454e5f5452414e534645525f4641494c45440000006020820152901515611c33576040517f08c379a0000000000000000000000000000000000000000000000000000000008152600401808060200182810382528381815181526020019150805190602001908083836000838110156109d25781810151838201526020016109ba565b505b8373ffffffffffffffffffffffffffffffffffffffff168373ffffffffffffffffffffffffffffffffffffffff167f596caf56044b55fb8c4ca640089bbc2b63cae3e978b851f5745cbb7c5b288e02846040518082815260200191505060405180910390a350505050565b6004805482908110611cae57fe5b60009182526020909120015473ffffffffffffffffffffffffffffffffffffffff16905081565b600080611ce0610916565b1515611cef5760009150611e5d565b611cf7611f4b565b905073ffffffffffffffffffffffffffffffffffffffff81161515611d1f5760009150611e5d565b8073ffffffffffffffffffffffffffffffffffffffff1663fdef9106863087611d4788613290565b6040517c010000000000000000000000000000000000000000000000000000000063ffffffff871602815273ffffffffffffffffffffffffffffffffffffffff808616600483019081529085166024830152604482018490526080606483019081528351608484015283519192909160a490910190602085019080838360005b83811015611ddf578181015183820152602001611dc7565b50505050905090810190601f168015611e0c5780820380516001836020036101000a031916815260200191505b5095505050505050602060405180830381600087803b158015611e2e57600080fd5b505af1158015611e42573d6000803e3d6000fd5b505050506040513d6020811015611e5857600080fd5b505191505b509392505050565b600080611e70611f4b565b604080517fbe00bbd80000000000000000000000000000000000000000000000000000000081527fd6f028ca0e8edb4a8c9757ca4fdccab25fa1e0317da1188108f7d2dee14902fb60048201527fddbcfd564f642ab5627cf68b9b7d374fb4f8a36e941a75d89c87998cef03bd616024820152905173ffffffffffffffffffffffffffffffffffffffff929092169163be00bbd8916044808201926020929091908290030181600087803b15801561129057600080fd5b6000611f31610916565b801561183d57506000611f4384611846565b119392505050565b60006110ae7f4172f0f7d2289153072b0a6ca36959e0cbe2efc3afe50fc81636caa96338137b613084565b6060611f823383611f27565b60408051808201909152601281527f56415f43414e5f4e4f545f464f52574152440000000000000000000000000000602082015290151561201f576040517f08c379a0000000000000000000000000000000000000000000000000000000008152600401808060200182810382528381815181526020019150805190602001908083836000838110156109d25781810151838201526020016109ba565b50506040805160008082526020820190815281830190925290612045908390839061329a565b505050565b600092915050565b60007fffffffffffffffffffffffffffffffffffffffffffffffffffffffffffffffff61207d6118ae565b14905090565b60007f79ac9d2706bbe6bcdb60a65ba8145a498f6d506aaa455baa7675dff5779cb99f6120af82613970565b6120ba338383611cd5565b60408051808201909152600f81527f4150505f415554485f4641494c454400000000000000000000000000000000006020820152901515612157576040517f08c379a0000000000000000000000000000000000000000000000000000000008152600401808060200182810382528381815181526020019150805190602001908083836000838110156109d25781810151838201526020016109ba565b5083612162816128ce565b60408051808201909152601281527f56415f4e4f5f504f5745525f534f55524345000000000000000000000000000060208201529015156121ff576040517f08c379a0000000000000000000000000000000000000000000000000000000008152600401808060200182810382528381815181526020019150805190602001908083836000838110156109d25781810151838201526020016109ba565b5073ffffffffffffffffffffffffffffffffffffffff851660009081526003602052604090206001908101945061223585612d3b565b60408051808201909152601581527f56415f534f555243455f4e4f545f454e41424c45440000000000000000000000602082015291146122d1576040517f08c379a0000000000000000000000000000000000000000000000000000000008152600401808060200182810382528381815181526020019150805190602001908083836000838110156109d25781810151838201526020016109ba565b506122ec6122dd61290d565b8590600063ffffffff61291f16565b60405173ffffffffffffffffffffffffffffffffffffffff8616907f90cf884dfbed115ddda1b4d953b8f7fafda56fa7481f1735ef56abe99960fd1490600090a25050505050565b600081612340816128ce565b60408051808201909152601281527f56415f4e4f5f504f5745525f534f55524345000000000000000000000000000060208201529015156123dd576040517f08c379a0000000000000000000000000000000000000000000000000000000008152600401808060200182810382528381815181526020019150805190602001908083836000838110156109d25781810151838201526020016109ba565b507f79ac9d2706bbe6bcdb60a65ba8145a498f6d506aaa455baa7675dff5779cb99f6124096001613970565b612414338383611cd5565b60408051808201909152600f81527f4150505f415554485f4641494c4544000000000000000000000000000000000060208201529015156124b1576040517f08c379a0000000000000000000000000000000000000000000000000000000008152600401808060200182810382528381815181526020019150805190602001908083836000838110156109d25781810151838201526020016109ba565b5073ffffffffffffffffffffffffffffffffffffffff8516600090815260036020526040812060010194506124e585612d3b565b60408051808201909152601681527f56415f534f555243455f4e4f545f44495341424c45440000000000000000000060208201529114612581576040517f08c379a0000000000000000000000000000000000000000000000000000000008152600401808060200182810382528381815181526020019150805190602001908083836000838110156109d25781810151838201526020016109ba565b5061259c61258d61290d565b8590600163ffffffff61291f16565b60405173ffffffffffffffffffffffffffffffffffffffff8616907f8c8ae6787c71cd00a0a566d6efb885db0d86d0eb4742600f86a7d929bfd984b090600090a25050505050565b600190565b4390565b606061183d8373ffffffffffffffffffffffffffffffffffffffff1683612dbc565b600060606000606060006126228761308c565b151561263157600094506128c4565b61263c6000876139b1565b306126456125e9565b604051602001808373ffffffffffffffffffffffffffffffffffffffff1673ffffffffffffffffffffffffffffffffffffffff1681526020018281526020019250505060405160208183030381529060405260405160200180837bffffffffffffffffffffffffffffffffffffffffffffffffffffffff19167bffffffffffffffffffffffffffffffffffffffffffffffffffffffff1916815260040182805190602001908083835b6020831061272b57805182527fffffffffffffffffffffffffffffffffffffffffffffffffffffffffffffffe090920191602091820191016126ee565b6001836020036101000a03801982511681845116808217855250505050505090500192505050604051602081830303815290604052935061278b848873ffffffffffffffffffffffffffffffffffffffff16613b5b90919063ffffffff16565b5092506127996001876139b1565b6127a16125e9565b6040516020018082815260200191505060405160208183030381529060405260405160200180837bffffffffffffffffffffffffffffffffffffffffffffffffffffffff19167bffffffffffffffffffffffffffffffffffffffffffffffffffffffff1916815260040182805190602001908083835b6020831061285457805182527fffffffffffffffffffffffffffffffffffffffffffffffffffffffffffffffe09092019160209182019101612817565b6001836020036101000a0380198251168184511680821785525050505050509050019250505060405160208183030381529060405291506128b4828873ffffffffffffffffffffffffffffffffffffffff16613b5b90919063ffffffff16565b5090508280156128c15750805b94505b5050505092915050565b60008073ffffffffffffffffffffffffffffffffffffffff831660009081526003602052604090205460ff16600281111561290557fe5b141592915050565b60006110ae61291a6125e9565b613b8c565b82546000808215156129c4576040805180820190915267ffffffffffffffff808716825277ffffffffffffffffffffffffffffffffffffffffffffffff80871660208085019182528a54600181018c5560008c815291909120945194018054915190921668010000000000000000029383167fffffffffffffffffffffffffffffffffffffffffffffffff000000000000000090911617909116919091179055612b94565b855486907fffffffffffffffffffffffffffffffffffffffffffffffffffffffffffffffff85019081106129f457fe5b6000918252602090912001805490925067ffffffffffffffff90811691508516811015612ab4576040805180820190915267ffffffffffffffff808716825277ffffffffffffffffffffffffffffffffffffffffffffffff80871660208085019182528a54600181018c5560008c815291909120945194018054915190921668010000000000000000029383167fffffffffffffffffffffffffffffffffffffffffffffffff000000000000000090911617909116919091179055612b94565b808567ffffffffffffffff161415612b0057815467ffffffffffffffff166801000000000000000077ffffffffffffffffffffffffffffffffffffffffffffffff861602178255612b94565b604080518082018252601a81527f434845434b504f494e545f504153545f434845434b504f494e54000000000000602080830191825292517f08c379a0000000000000000000000000000000000000000000000000000000008152600481019384528251602482015282519293928392604490920191908083836000838110156109d25781810151838201526020016109ba565b505050505050565b60408051808201909152601681527f55494e543139325f4e554d4245525f544f4f5f42494700000000000000000000602082015260009077ffffffffffffffffffffffffffffffffffffffffffffffff831115612c55576040517f08c379a0000000000000000000000000000000000000000000000000000000008152600401808060200182810382528381815181526020019150805190602001908083836000838110156109d25781810151838201526020016109ba565b5090919050565b612c646118ae565b60408051808201909152601881527f494e49545f414c52454144595f494e495449414c495a4544000000000000000060208201529015612d00576040517f08c379a0000000000000000000000000000000000000000000000000000000008152600401808060200182810382528381815181526020019150805190602001908083836000838110156109d25781810151838201526020016109ba565b50612d39612d0c6125e9565b7febb05b386a8d34882b8711d156f463690983dc47815980fb82aeeff1aa43579e9063ffffffff613c3516565b565b805460009081811115612db157825483907fffffffffffffffffffffffffffffffffffffffffffffffffffffffffffffffff8301908110612d7857fe5b60009182526020909120015468010000000000000000900477ffffffffffffffffffffffffffffffffffffffffffffffff169150612db6565b600091505b50919050565b604080516002808252606080830184529260208301908038833901905050905082816000815181101515612dec57fe5b602090810290910101528051829082906001908110612e0757fe5b6020908102909101015292915050565b60008060008060008060606000806000612e308d613b8c565b985060009750600096505b600454871015613073576004805488908110612e5357fe5b600091825260208083209091015473ffffffffffffffffffffffffffffffffffffffff168083526003909152604090912090965094506001612e9d8682018b63ffffffff613c3916565b1415613068578454612eb3908d9060ff166139b1565b6040517fffffffff00000000000000000000000000000000000000000000000000000000821660208083019182528e518f93602401918401908083835b60208310612f2d57805182527fffffffffffffffffffffffffffffffffffffffffffffffffffffffffffffffe09092019160209182019101612ef0565b6001836020036101000a038019825116818451168082178552505050505050905001925050506040516020818303038152906040529350612f8d848773ffffffffffffffffffffffffffffffffffffffff16613b5b90919063ffffffff16565b60408051808201909152601581527f56415f534f555243455f43414c4c5f4641494c454400000000000000000000006020820152919450925083151561302f576040517f08c379a0000000000000000000000000000000000000000000000000000000008152600401808060200182810382528381815181526020019150805190602001908083836000838110156109d25781810151838201526020016109ba565b50613043600286018a63ffffffff613c3916565b9050613065613058828463ffffffff613c4516565b899063ffffffff613d1316565b97505b600190960195612e3b565b50959b9a5050505050505050505050565b5490565b5490565b60008073ffffffffffffffffffffffffffffffffffffffff831615156130b55760009150612db6565b50506000903b1190565b6040805173ffffffffffffffffffffffffffffffffffffffff83166024808301919091528251808303909101815260449091019091526020810180517bffffffffffffffffffffffffffffffffffffffffffffffffffffffff167f70a0823100000000000000000000000000000000000000000000000000000000179052600090818061314c8684613b5b565b60408051808201909152601c81527f534146455f4552435f32305f42414c414e43455f524556455254454400000000602082015291935091508215156131ee576040517f08c379a0000000000000000000000000000000000000000000000000000000008152600401808060200182810382528381815181526020019150805190602001908083836000838110156109d25781810151838201526020016109ba565b5095945050505050565b6040805173ffffffffffffffffffffffffffffffffffffffff8416602482015260448082018490528251808303909101815260649091019091526020810180517bffffffffffffffffffffffffffffffffffffffffffffffffffffffff167fa9059cbb000000000000000000000000000000000000000000000000000000001790526000906132878582613db8565b95945050505050565b8051602002815290565b60606000806060806132aa610916565b60408051808201909152601481527f494e49545f4e4f545f494e495449414c495a45440000000000000000000000006020820152901515613347576040517f08c379a0000000000000000000000000000000000000000000000000000000008152600401808060200182810382528381815181526020019150805190602001908083836000838110156109d25781810151838201526020016109ba565b50600080613353611f4b565b915061335d611883565b90506133688a6111b6565b60408051808201909152601b81527f45564d52554e5f4558454355544f525f554e415641494c41424c450000000000602082015290965073ffffffffffffffffffffffffffffffffffffffff8716151561341e576040517f08c379a0000000000000000000000000000000000000000000000000000000008152600401808060200182810382528381815181526020019150805190602001908083836000838110156109d25781810151838201526020016109ba565b506040516060602482019081528b5160848301528b517f279cea3500000000000000000000000000000000000000000000000000000000975087928d928d928d9282916044820191606481019160a490910190602089019080838360005b8381101561349457818101518382015260200161347c565b50505050905090810190601f1680156134c15780820380516001836020036101000a031916815260200191505b50848103835286518152865160209182019188019080838360005b838110156134f45781810151838201526020016134dc565b50505050905090810190601f1680156135215780820380516001836020036101000a031916815260200191505b508481038252855181528551602091820191808801910280838360005b8381101561355657818101518382015260200161353e565b505050509050019650505050505050604051602081830303815290604052907bffffffffffffffffffffffffffffffffffffffffffffffffffffffff19166020820180517bffffffffffffffffffffffffffffffffffffffffffffffffffffffff83818316178352505050509350600080855160208701895af4604051935080801561365b57603f3d1180156135f95760203d03806020883e8601604052613655565b7f08c379a000000000000000000000000000000000000000000000000000000000865260206004870152601e60248701527f45564d52554e5f4558454355544f525f494e56414c49445f52455455524e00006044870152606486fd5b50613664565b3d6000863e3d85fd5b50508573ffffffffffffffffffffffffffffffffffffffff167f5229a5dba83a54ae8cb5b51bdd6de9474cacbe9dd332f5185f3a4f4f2e3f4ad98b8b8660405180806020018060200180602001848103845287818151815260200191508051906020019080838360005b838110156136e65781810151838201526020016136ce565b50505050905090810190601f1680156137135780820380516001836020036101000a031916815260200191505b50848103835286518152865160209182019188019080838360005b8381101561374657818101518382015260200161372e565b50505050905090810190601f1680156137735780820380516001836020036101000a031916815260200191505b50848103825285518152855160209182019187019080838360005b838110156137a657818101518382015260200161378e565b50505050905090810190601f1680156137d35780820380516001836020036101000a031916815260200191505b50965050505050505060405180910390a28296508173ffffffffffffffffffffffffffffffffffffffff16613806611f4b565b73ffffffffffffffffffffffffffffffffffffffff16146040805190810160405280601f81526020017f45564d52554e5f50524f5445435445445f53544154455f4d4f444946494544008152509015156138bc576040517f08c379a0000000000000000000000000000000000000000000000000000000008152600401808060200182810382528381815181526020019150805190602001908083836000838110156109d25781810151838201526020016109ba565b50806138c6611883565b60408051808201909152601f81527f45564d52554e5f50524f5445435445445f53544154455f4d4f4449464945440060208201529114613962576040517f08c379a0000000000000000000000000000000000000000000000000000000008152600401808060200182810382528381815181526020019150805190602001908083836000838110156109d25781810151838201526020016109ba565b505050505050509392505050565b60408051600180825281830190925260609160208083019080388339019050509050818160008151811015156139a257fe5b60209081029091010152919050565b600060018260028111156139c157fe5b1415613a3d5760008360018111156139d557fe5b1415613a0257507f4ee2cd7e00000000000000000000000000000000000000000000000000000000611840565b6001836001811115613a1057fe5b1415613a3d57507f981b24d000000000000000000000000000000000000000000000000000000000611840565b6002826002811115613a4b57fe5b1415613ac7576000836001811115613a5f57fe5b1415613a8c57507fede3842100000000000000000000000000000000000000000000000000000000611840565b6001836001811115613a9a57fe5b1415613ac757507fc9c5323200000000000000000000000000000000000000000000000000000000611840565b604080518082018252601b81527f56415f494e56414c49445f43414c4c5f4f525f53454c4543544f520000000000602080830191825292517f08c379a0000000000000000000000000000000000000000000000000000000008152600481019384528251602482015282519293928392604490920191908083836000838110156109d25781810151838201526020016109ba565b6000806000806040516020818751602089018a5afa92506000831115613b8057805191505b50909590945092505050565b60408051808201909152601581527f55494e5436345f4e554d4245525f544f4f5f4249470000000000000000000000602082015260009067ffffffffffffffff831115612c55576040517f08c379a0000000000000000000000000000000000000000000000000000000008152600401808060200182810382528381815181526020019150805190602001908083836000838110156109d25781810151838201526020016109ba565b9055565b600061183d8383613e06565b600080831515613c585760009150613d0c565b50828202828482811515613c6857fe5b60408051808201909152601181527f4d4154485f4d554c5f4f564552464c4f5700000000000000000000000000000060208201529291900414613d07576040517f08c379a0000000000000000000000000000000000000000000000000000000008152600401808060200182810382528381815181526020019150805190602001908083836000838110156109d25781810151838201526020016109ba565b508091505b5092915050565b60408051808201909152601181527f4d4154485f4144445f4f564552464c4f5700000000000000000000000000000060208201526000908383019084821015613d07576040517f08c379a0000000000000000000000000000000000000000000000000000000008152600401808060200182810382528381815181526020019150805190602001908083836000838110156109d25781810151838201526020016109ba565b6000806040516020818551602087016000895af16000811115613dfc573d8015613de95760208114613df257613dfa565b60019350613dfa565b600183511493505b505b5090949350505050565b815460009081808080808080871515613e225760009850613fe5565b8a547fffffffffffffffffffffffffffffffffffffffffffffffffffffffffffffffff890197508b9088908110613e5557fe5b6000918252602090912001805490965067ffffffffffffffff908116908b1610613ea857855468010000000000000000900477ffffffffffffffffffffffffffffffffffffffffffffffff169850613fe5565b8760011480613ede57508a548b906000908110613ec157fe5b60009182526020909120015467ffffffffffffffff908116908b16105b15613eec5760009850613fe5565b600094506001870393505b84841115613fa2578a5460028686016001010493508b9084908110613f1857fe5b6000918252602090912001805490925067ffffffffffffffff90811691508a16811015613f4757829450613f9d565b8067ffffffffffffffff168a67ffffffffffffffff161015613f6e57600183039350613f9d565b815468010000000000000000900477ffffffffffffffffffffffffffffffffffffffffffffffff169850613fe5565b613ef7565b8a548b9086908110613fb057fe5b60009182526020909120015468010000000000000000900477ffffffffffffffffffffffffffffffffffffffffffffffff1698505b505050505050505092915050565b828054600181600116156101000203166002900490600052602060002090601f016020900481019282601f10614052578280017fffffffffffffffffffffffffffffffffffffffffffffffffffffffffffffff0082351617855561407f565b8280016001018555821561407f579182015b8281111561407f578235825591602001919060010190614064565b5061093c926110b19250905b8082111561093c576000815560010161408b5600a165627a7a72305820d5ae907cc7ad5bf8595597c99cccabaa91b8c6876424567a4a8eba27e16b24ea0029ebb05b386a8d34882b8711d156f463690983dc47815980fb82aeeff1aa43579e",
  "devdoc": {
    "methods": {
      "addPowerSource(address,uint8,uint256)": {
        "params": {
          "_sourceAddr": "Address of the power source",
          "_sourceType": "Interface type of the power source",
          "_weight": "Weight to assign to the source"
        }
      },
      "allowRecoverability(address)": {
        "details": "By default deriving from AragonApp makes it recoverable",
        "params": {
          "token": "Token address that would be recovered"
        },
        "return": "bool whether the app allows the recovery"
      },
      "canForward(address,bytes)": {
        "details": "IForwarder interface conformance",
        "params": {
          "_sender": "Address of the account intending to forward an action"
        },
        "return": "True if the given address can forward actions, false otherwise"
      },
      "canPerform(address,bytes32,uint256[])": {
        "details": "Check whether an action can be performed by a sender for a particular role on this app",
        "params": {
          "_params": "Permission params for the role",
          "_role": "Role on this app",
          "_sender": "Sender of the call"
        },
        "return": "Boolean indicating whether the sender has the permissions to perform the action.        Always returns false if the app hasn't been initialized yet."
      },
      "changeSourceWeight(address,uint256)": {
        "params": {
          "_sourceAddr": "Power source's address",
          "_weight": "New weight to assign"
        }
      },
      "disableSource(address)": {
        "params": {
          "_sourceAddr": "Power source's address"
        }
      },
      "enableSource(address)": {
        "params": {
          "_sourceAddr": "Power source's address"
        }
      },
      "forward(bytes)": {
        "details": "IForwarder interface conformance",
        "params": {
          "_evmScript": "Script being executed"
        }
      },
      "getInitializationBlock()": {
        "return": "Block number in which the contract was initialized"
      },
      "getPowerSourceDetails(address)": {
        "details": "Return information about a power source",
        "params": {
          "_sourceAddr": "Power source's address"
        },
        "return": "Power source typeWhether power source is enabledPower source weight"
      },
      "getPowerSourcesLength()": {
        "details": "Return number of added power sources",
        "return": "Number of added power sources"
      },
      "getRecoveryVault()": {
        "details": "Get the recovery vault for the app",
        "return": "Recovery vault address for the app"
      },
      "hasInitialized()": {
        "return": "Whether the contract has been initialized by the time of the current block"
      },
      "initialize(string,string,uint8)": {
        "params": {
          "_decimals": "The aggregator's display decimal units",
          "_name": "The aggregator's display name",
          "_symbol": "The aggregator's display symbol"
        }
      },
      "isForwarder()": {
        "details": "IForwarder interface conformance",
        "return": "Always true"
      },
      "transferToVault(address)": {
        "params": {
          "_token": "Token balance to be sent to recovery vault."
        }
      }
    },
    "title": "VotingAggregator"
  },
  "userdoc": {
    "methods": {
      "addPowerSource(address,uint8,uint256)": {
        "notice": "Add a new power source (`_sourceAddr`) with `_weight` weight"
      },
      "canForward(address,bytes)": {
        "notice": "Tells whether `_sender` can forward actions or not"
      },
      "changeSourceWeight(address,uint256)": {
        "notice": "Change weight of power source at `_sourceAddr` to `_weight`"
      },
      "disableSource(address)": {
        "notice": "Disable power source at `_sourceAddr`"
      },
      "enableSource(address)": {
        "notice": "Enable power source at `_sourceAddr`"
      },
      "forward(bytes)": {
        "notice": "Execute desired action if you have voting power"
      },
      "initialize(string,string,uint8)": {
        "notice": "Create a new voting power aggregator"
      },
      "isForwarder()": {
        "notice": "Tells whether the VotingAggregator app is a forwarder or not"
      },
      "transferToVault(address)": {
        "notice": "Send funds to recovery Vault. This contract should never receive funds,        but in case it does, this function allows one to recover them."
      }
    }
  }
}